:100000001CC02CC02BC02AC029C028C027C026C0B5
:1000100025C024C023C022C021C020C01FC01EC0D4
:100020001DC01CC01BC0446573742E20743A200090
:10003000437572722E20743A200011241FBECFED3A
:10004000CDBF10E0A0E6B0E0EAE5F1E002C0059027
:100050000D92A836B107D9F772D07DC0D1CF969A4C
:100060008FEC97E00197F1F700C0000096988FECB5
:1000700097E00197F1F700C000000895CF93C82FD3
:1000800088B3807F88BB98B38C2F82958F70892B23
:1000900088BBE5DF88B3807F88BB88B3CF70C82B6F
:1000A000C8BBCF91DCCF94989598E8CF9498959A57
:1000B000E5CFCF93DF9381B3806781BB87B38F6038
:1000C00087BB82B38F7982BB88B3807F88BB9498CB
:1000D000C0E6D0E08991811103C0DF91CF910895EE
:1000E000E2DFF8CF0F931F93CF93DF938C01640F60
:1000F000862F8068D8DF8AE68A95F1F700C0E8018C
:100100008991811105C0DF91CF911F910F910895C1
:10011000CDDFF6CFCF93DF93EC01640F862F80689D
:10012000C2DF8AE68A95F1F700C0FE018491811151
:1001300003C0DF91CF910895B9DF2196F6CFB9DFE3
:1001400040E060E080E390E0E5DF40E060E486E2EC
:0A01500090E0E0DFFFCFF894FFCF4E
:08015A008003030228010C00E0
:00000001FF
